:200000000080202003340000FB330000FB330000000000000000000000000000000000008D
:20002000000000000000000000000000FB3300000000000000000000FB330000FB33000036
:20004000FB33000089120000FB330000FB330000FB330000FB330000FB330000FB330000C3
:2000600000000000FB330000FB3300000000000000000000FB330000FB330000FB3300009A
:20008000711E0000FB330000FB330000FB330000FB330000FB3300000000000000000000EB
:2000A000FB330000FB3300000000000000000000FB33000000000000FB330000FB3300005A
:2000C000F0B5FFB08EB0049306920646929802900025E84305908C913468204603F053F914
:2000E00021188B9503918C4200D3BBE00020879087A908738890059889902F46049D207879
:20010000002800D1AFE0252805D0641C34600699A8477F1CF3E78B97601C306087AC204657
:20012000314600F0A7F88CAA2046314600F0BFF8306801787A2925D0682919D06A2908D071
:200140006C290ED0742908D04C2922D1879980221BE087990122D20217E0879901225203EC
:2001600013E0427887996C2A64D10122120205E042788799682A60D101225202114387914B
:20018000801C05E08799012212030A438792401C0178441C346087A8017373291FD06E2992
:2001A00029D1879832490840202850D040283CD001214A03904238D04A02904242D0CA0242
:2001C000904205D00A0390422FD0090288422CD1F8178C9904C98C91176050603BE087A839
:2001E0000078400619D4009587A88CAA8BAB069900F01DF92FE007AD87A98CAA284600F0F8
:200200006DF9024628460699029B9847411C059D00D0C5198B9503991FE0009587A88CAA45
:200220008BAB069900F09FF815E08C9802C88C900F6010E0401C402201E0401C2022114373
:200240008791A5E78C9802C88C900F7003E08C9802C88C900F8003998B9D681C00D042E7B4
:20026000059F00E02F4638467FB00EB0F0BDC046603F000010B50A681378302B0FD0232B7E
:2002800007D02B2B09D02D2B05D0202B0ED1042306E0082304E0012302E0022300E01023A7
:2002A00004681C430460521C0A60E5E710BDFEB516460D460446086802782A2A10D130683B
:2002C000011D316000686060002805D54042606020680121014321602868471C2F6017E01B
:2002E0000021303A092A08D84218531C2B60435C6F467B545278491CF3E76A460023535466
:2003000012784718002A03D0684602F0CDFB606038782E2826D1781C286079782A2908D199
:200320003068011D31600068A0602868401C2860FEBD00203039092908D839188A1C2A60C3
:200340004A786B461A548978401CF3E76A46002111541078002804D0684602F0A5FBA0608B
:20036000FEBDA160FEBDF0B587B01E460C9F13681C1D14601D68002D3BD00491069084681F
:20038000002C04D4284602F0EFFF844203D3284602F0EAFF044606984068A042039000DC45
:2003A000204601463068019140180296306005940398A0420EDD06980078C0070AD1059890
:2003C00001990E1A0024B44204DA20200499B847641CF8E70026049C069805998E420BDA71
:2003E0002868010A19D12D1DC0B22146B847761CF2E70020B84718E00599039A8A4214DDDC
:200400000078C00711D00198451A0024AC420CDA20200499B847641CF8E70020C0430299D3
:20042000086002F0D7FF5821016007B0F0BDF0B585B00C4606460A9D1068011D11600068C0
:200440000490002844D00393B768002F04D4049802F099FF874203D3049802F094FF0746DD
:2004600002967268BA42114600DC3946039B18680091401818600192BA420FDD0298007850
:20048000C0070BD10098C01B039000260398864204DA20202146A847761CF7E70026BE4220
:2004A00005DA0498805D2146A847761CF7E70198B84210DD02980078C0070CD00098C61B70
:2004C0000027B74207DA20202146A8477F1CF8E700202146A84705B0F0BDC046F0B589B04F
:2004E00001920F460446FF210846FA30251878680290002607960391FE31202220460092C3
:2005000002F03AFF7F20800006942118089104952E713D46387B0246613A172A2AD801236D
:2005200093402C46B44D2B42254608D007A908AA2846019B00F066F900260596B3E0712520
:200540002B42254622D1022A14D1019B1868021D1A600068C2B2534253410593039AFC32A2
:20056000069B9A18089208702868022188432860002698E001464539032907D3252860D02A
:20058000412803D058280596D0D08DE0019A1068C11D0720814308460830106005C9D14343
:2005A0002F7B4900490D0BD17B3F944911400143049C2CD01920C1438F4234D36E2033E098
:2005C000002A01D4114602E00121C9075140D60F002205923A46413A062A0BD9613F062FDE
:2005E00061D8C0467F443F797F00BF440B5C5C5C3B3631007A441279520097440354545489
:20060000332E290008AB2A4600F042FA4BE0002311461A46059301F07FFF1921C9438F42DE
:2006200025D3662224E04E20E0708F4201D3612100E04121A17008946070002005900226B5
:2006400031E0002006994870252008700120A1E008AB2A4600F02CFB25E008AB2A4602F05F
:2006600039F820E008AB2A4600F09EFE1BE04622E2708F4201D36E2200E04E22A2708F427D
:2006800001D3692100E0492161703F21C900069A51180891002803D02D202070042602E032
:2006A0002B2020700326287B012701466F39092904D801228A4052490A4201D158286BD10C
:2006C000049B029C04972946069F3D1908980C460978C90707D1191D091A62689142069F22
:2006E00001DC691A4F1C411C0398430000263846324602F09BFB08900599002903D0411CC1
:200700000891067000E00146A94206D8481E691A491C202202F030FE2E702078C00605D455
:200720000698391A202202F027FE2EE0069887422BD00698391A3026324602F01DFE079894
:200740004142414104980140012905D12078400702D43846069905E03878069A511C1070C3
:20076000781C3E70227B412A0CD0582A05D0612A08D0782A01D0702A07D123781B0701D422
:20078000612A02D142784A704670069802F0FBFD0599401809B0F0BD002E09D0012E049B18
:2007A000029C8FD10120079029680220084007E0079A296802200840002A09D0049B029CC5
:2007C00008994A1E08922D220A704742474179E70028049B029C08D1480700D472E70898E2
:2007E000411E0891009901706CE70898411E08912B210170002765E708C19000FFFF0F0076
:2008000043020000F8B514460F4605468068002804D4286810218843286001E00120A860E6
:20082000287B1026582808D0782806D0702804D06F2801D1082600E00A262846194600F041
:2008400055F8AA68002A09D102460A4306D12878000749D52B7B0020024612E02B7B642BCF
:2008600003D1642300290BD504E0692B08D1002906D5692301223A60002240428A4100E027
:200880000A4600941146324600F0B0F8A968884206DA401C21684A1E226030220A70F5E7DB
:2008A000287B582803D0782801D070280FD1297809070CD5702800D1782021684A1E226053
:2008C00008702068411E216030210170287B6F280AD12878000707D520684178302903D071
:2008E000411E216030210170F8BDC04610B5037B702B05D10868021D0A60006800226FE015
:200900000068384A024001204403A24222D0402A20D00402A24230D04402A24246D0C40223
:20092000A2422AD00403A24214D0202A12D100221C46643C142C06D8A0402B4C204204D10D
:20094000212420423ED1582B49D10868031D0B60008845E000221C46643C142C06D8A0407A
:20096000214C204204D1212420422BD1582B36D10868031D0B60006832E01A46643A142AF5
:2009800006D89040184A104206D12122104203D10020582B024623D10868C21D072082439B
:2009A0001046083008601068526819E000221C46643C142C0CD8A0400B4C20420AD1212415
:2009C000204205D00868021D0A600068C21707E0582B04D10868031D0B60007800E01046BE
:2009E000114610BD603F000000081200FEB501920D460646582B01D0174800E015480090B5
:200A0000089802903046284305D1029A1068411E116030210170019C3046284313D0304670
:200A20002946224600F01AF807460D46224602F0EBF9301A0099085C029B19684A1E1A60B8
:200A400008703E46E8E70298006802F09CFC401EFEBDC046703500008135000080B5102A56
:200A600006D0082A09D1C0084A078018C90880BD00090A078018090980BD002904D111467F
:200A800001F0D2FF002180BD002302F015FC80BDF0B5A5B0049308920E46074600240A9445
:200AA0007E4D22462B4601F04BFD002813D100247B4D3846314622462B4601F037FD002846
:200AC00009D1002238463146134601F01BFD00283C46354607D10AAA2046294601F072FDDD
:200AE0000A98401E0A900899087B0BAE412801D06D4800E06B480990886801903020039000
:200B000030700022079220462946134601F004FD01210028029101D0C8074540771C20465F
:200B20002946079A134601F0EDFC00280DD124AA2046294601F046FD249801210A1A20462D
:200B4000294600F097FF04460D462046294601F0DDFE06463946059701F090FD0690304671
:200B600002F0C2F802F022FC04460D460198471C20D3059806994618002220462946134643
:200B800001F0C0FC002848D1002220462946474B00F090FE04460D4601F0B8FE0999095C15
:200BA000771C317002F0A0F802F000FC04460D463E46E1E70BA806994618002F16D07F1E3E
:200BC000002220462946394B00F074FE04460D4601F09CFE0999095C3246761C517002F04C
:200BE00083F802F0E3FB04460D46E6E73178099C204602F06BFB001B08280EDB0196741ED7
:200C0000089D079F099E2178304602F05FFB801B0E2805DD2770641EF5E7089D079F04E0B0
:200C20000999081840782070019E37700A98297B4129049C01D0702100E05021069E059F19
:200C4000224601F09EFDAA68501C04D1384602F09AFB421EAA6038463146234601F0D4FFBC
:200C6000A8680028029A02D128680007C20F38463146234601F012FC287B412801D0782093
:200C800000E0582021684A1E226008702068411E21600399017025B0F0BDC0460000F07FA5
:200CA0000000F0FF703500008135000000003040F0B5A3B003930F46044604929168002995
:200CC00003D0002904D5062100E001210498816007910AA8302108910170002520463946EA
:200CE0002A462B4601F018FC01210028059101D0C8074740624E20463946604A334601F05E
:200D000029FC002809D00022204639465E4B00F061FC04460F466D1CEDE75A4E0022204684
:200D200039460992134601F0EDFB002811D1002220463946334601F0EFFB002809D00022DF
:200D400020463946504B00F0B5FD04460F466D1EE4E702950AA8451C2046394601F0D6FD29
:200D60000695294601F08AFC07998842019004DD481C0AA90A18085C1FE0C9430E180AA995
:200D80000D18681C07902046394601F0BFFD01F0ABFF02460B462046394600F077F80022E7
:200DA000394B00F087FD04460F4601F0AFFD079A30306870761C1546E3D3C0B23528039E13
:200DC000049F029B099D0FD31446501E0178491CCAB201703A2A03D330210170401EF5E782
:200DE0000AA98842224640D00198C41815700220C043844202DBB868844207DD601E397B40
:200E0000891EC9B2324601F0BCFC0124069802F0BAFA401E0599A0421ADB0028089A01D4B4
:200E2000069A125C1346303B5D1EAB41C9431943C90705D13978090702D40025059905E02C
:200E400031684B1E33600A7001250021401EE2E73868082202402A43501E82410698214666
:200E6000334601F01BFB23B0F0BD501E002101700198C018441C0AA80690B8E70000C0FFFB
:200E8000FFFFDF410000F03F00002440FCB40124E407634002E0FCB40124E40708B41D03C0
:200EA000ED08D60D354356025F007F0D06D12C00344300D0AEE001B0FCBC7047A408254393
:200EC00007242402FF34A74205D10020190D090501B0FCBC7047002B03D50024A61BAC4186
:200EE00025000B03DB08C20D134342024800400D07D11C00144300D08CE00EBC1000F0BCD1
:200F0000704701246407234307242402FF34A04205D10020090D090501B0FCBC704700295B
:200F200003D50024A21A9C412300C11B08D51C002B0025001400320026000024611A380091
:200F4000362925D502B4393949420C00203C03D22F008F40374301E03700A740002F01D0D1
:200F600040210E4302BC20290BD500290ED04C42203420B4A5402C0020BC0D41CE40361983
:200F800004E000292E000D4120390E4192196B411C0014433ED00024002B04D501240021DA
:200FA0008A1A99410B00401E52005B41FBD50121890215000D400CD0521800277B4101D380
:200FC000401C0BE00721C90115000D4001D189008A43072109028A4352005B41801C19DDCE
:200FE00007210902FF31884209D30EBC0020C90F0902FF31C900C91D0905F0BC7047190BA7
:2010000000050143E40721431805120B104301B0FCBC70470021002001B0FCBC7047704773
:20102000F0B587B01D4616463024059004700027104619463A463B4601F06EFA00280194C5
:2010400002D00120C00745400D9804900C9803903F4C304629463D4A234601F07BFA0028F3
:2010600009D00022304629463B4B00F0B3FA06460D467F1CEDE70598441C0022304629465B
:201080000692134601F03EFA002811D1002230462946304B01F040FA002809D000223046E6
:2010A00029462D4B00F006FC06460D467F1EE4E70398C01903903046294601F027FC2146E9
:2010C00001F0DCFA02942418C019049908600398471C012F1ADB3046294601F017FC01F09C
:2010E00003FE02460B4630462946FFF7CFFE0022194B00F0DFFB06460D4601F007FC30306B
:20110000611C20707F1E0C46E5D100E02146481E0278352A0DD3891E019C0A78521CD3B2FE
:201120000A703A2B02D30C70491EF6E7059A914204D006990170029807B0F0BD06990170D7
:2011400004990868401C08600598F5E70000C0FFFFFFDF410000F03F0000244080B582B06E
:201160006946087001208104414802F014F8002805D0FFE73F490888401C088003E03D49D3
:2011800000200880FFE701208104394802F003F8002809D0FFE738480078002804D1FFE7EB
:2011A000354901200870FFE73448007800281CD1FFE731480078012808D1FFE73049087871
:2011C000401C08702D4901200870FFE72C480078032809D1FFE72A4900200870294908806A
:2011E00001A9022008703FE0FFE701208104204801F0D1FF002806D1FFE71F4900200870F2
:201200001E490870FFE71E480078012828D1FFE71C480188491C01800088694609788842CE
:2012200010DDFFE71348008869460978884209DAFFE71349002008701249088001A9012093
:20124000087011E00B48008869460978884206DDFFE70B49002008700A490880FFE7FFE7F4
:2012600001A900200870FFE701A8007802B080BD00000A40FA012020FF012020FE01202032
:2012800010012020FC01202080B582B0032041063F4801F0C1FE3F490191086011200105FF
:2012A0003D4801F0B9FE014601983C4A1160C0788007002813D5FFE701208106344801F060
:2012C0005FFF002805D1FFE735490868401E086004E033490868401C0860FFE719E02D4830
:2012E000C0784007002813D5FFE701204106284801F046FF002805D1FFE729490868401C49
:20130000086004E026490868401E0860FFE7FFE7FFE722488078C006002813D5FFE70120EB
:2013200001061D4801F02CFF002805D1FFE71D490868401E086004E01A490868401C08602A
:20134000FFE719E01548C078C007002813D0FFE701200105104801F013FF002805D1FFE7FB
:2013600010490868401C086004E00E490868401E0860FFE7FFE7FFE703204106044801F016
:20138000A7FD11200105044801F0A2FD02B080BD00000A40F001202000200A40F40120208D
:2013A000E0012020E4012020F0B5A1B0049305469068002801D506209060029003920024B8
:2013C0003D4F2846224606913B4601F0B9F806990028264614D10026384F284632463B46C5
:2013E00001F0A4F8069900280AD1002228460592134601F087F8069B00282E461F4622D139
:201400002F4D01F0E1FF01F087F8002809D00022304639462B4B00F04DFA06460F46641E27
:20142000EFE7284D01F0D0FF01F08AF8002807D001F0CAFF00F0CEF806460F46641CF1E7C6
:2014400035463B46059407A802990091019008A82A46FFF7E5FD0446079D022D0DD1059DF6
:201460006D1C204601F08FFF2018401E0021017028460125049E039F02E0049E039F05983B
:20148000397B324601F07DF9BA6820462946334601F0BAFB204601F076FF854203D138689C
:2014A0000007C20F00E0012220462946334600F0F5FF21B0F0BDC0460000F07F0000F0FF3D
:2014C0000000F03F0000244080B58EB00D900C910D9801281DDBFFE701200A9041033B489E
:2014E0000B9001F0BDFD0A990B98890301F094FE0D98012803DBFFE70D98099003E00D98F9
:2015000040420990FFE709993148002201F01CFF1CE00120079081032C48089001F0A0FDAF
:2015200007990898490301F077FE0D98012803DBFFE70D98069003E00D9840420690FFE766
:2015400006992348002201F0FFFEFFE70C9801281DDBFFE70120049041041C48059001F0FC
:201560007FFD04990598090401F056FE0C98012803DBFFE70C98039003E00C9840420390FF
:20158000FFE703991248012201F0DEFE1CE00120019001040D48029001F062FD0199029861
:2015A000490401F039FE0C98012803DBFFE70C98009003E00C9840420090FFE7009904488D
:2015C000012201F0C1FEFFE70EB080BD00000A4000208640FCB40C005C40E40FE40710B42D
:2015E0001D032D0B56006D415F007F0D73D001246405254307242402FF34A74261D00B03BF
:201600001B0B42005B414800400D64D001246405234307242402FF34A04252D0C01B002185
:2016200000273624AB4200D1B24204D37F414941921BAB4101E07F414941641E06D0002B0F
:2016400001D1002A02D052005B41EBE7202C07D2162C0AD33900A7402026361BF1400BE0E5
:20166000203C3900A140002706E0A1402026361B3D00F5402943A74001246405214202D1E6
:201680007F004941401E00247F1C61410124A405214202D0401CA14301E06408A1430324E7
:2016A0002402FF34001916DD2419A04209D8CC074908000501437808204310BC2143FCBC8D
:2016C000704702BC0020C90F0902FF21C900C91D0905FCBC70470021002001B0FCBC7047E5
:2016E00080B588B00E200821009101F029FC34480690042101F078FC00990F2001F020FC0E
:201700000099069801F070FC14200221019101F017FC0199152001F09BFB272001F002FCBC
:20172000192001F085FC252001F082FC262001F07FFC232001F07CFC222001F079FC3620EE
:2017400001F0F0FB3A2001F0EDFB2F2001F0EAFB332001F0E7FB1B20410302911948039029
:2017600001F064FD0299039801F03EFC03980521890401F081FC039803214906049101F066
:20178000B5FB0398049901F0BFFB069801214902059101F04BFD0599069801F025FC0698F0
:2017A000094901F069FC069811210905079101F09DFB0698079901F0A7FB08B080BDC046B6
:2017C00000200A4000000A4000010100B0B5364A80184A6842600A78222A56D8930001A44E
:2017E000E3589F46811800008B180000811800008B1800008B1800008B1800008B18000068
:201800008B1800008B1800008B1800008B1800008B1800008B1800008B1800008B180000B0
:201820008B180000711800008B180000711800008B1800008B1800008B1800008B180000C4
:201840008B1800008B1800008B1800008B1800008B1800008B1800008B1800008B18000070
:201860008B180000711800008B18000071180000036803242407A343012464071B1903E0C6
:20188000036803242407A34303600B69C360CB68C46A064D2540064C1C402B19C362097AF8
:2018A00011430160B0BDC046041800008888FDFF77770200FCB50C005C40E40FE40710B4ED
:2018C000DD02540D2543D6025F007F0D60D00124E407254307242402FF34A74250D0CB029B
:2018E000440D2343C2024800400D51D00124E407234307242402FF34A04241D0C01901B43C
:201900001800290001F02CF90F0001B41800310001F026F903000C001000310001F020F9F9
:2019200006001000290001F01BF905007618002202BC01BC55415141A41955415141802482
:20194000A4005B195141FF18514100D564003F19514102D47F00494100E0401C03242402A9
:20196000FF34001B14DD2419A04209D80305F80A4C0520434900090B194310BC2143FCBDC8
:201980000020FF21C900C91D090510BC2143FCBD0021002001B0FCBDF0B584B03049314AE9
:2019A0000125AC0316682B0203939E4316600E68264205D10E68264202D10E682642F6D0B1
:2019C0006C02467E9769AF432E40BD1995612025455DD6690327BE433D407519D561224DA8
:2019E0002E680727374005262E60466A33681362736853622F60C3695B065B0CD5697F263D
:201A00003602B543EB18D361E8C8009707680197476802971B071B0B2D03ADB2ED183307B3
:201A20001B0D007A009E35431D43019B1D43029B1D43054390690D4B03400D482840C01824
:201A400090611068039B184310600868204205D10868204202D108682042F6D004B0F0BD6E
:201A600004020B4008010B40001340408D00F0FF72FF0F00F8B515462A4E0A0D771C3A408E
:201A8000294B9A4213D00C46002A18D10122D2079443044344D00022244BFFF70BFF0C469D
:201AA00023498D4208DC234A234B214636E002460B46FFF7F0F9F8BD220D3A40363A5119FF
:201AC000B1420ADD01F086FC222101600120C00704401D4821180020F8BD012904DB174A0C
:201AE000144009052143F8BD3522D24391420CDC01F070FC2221016012488542E6DA012041
:201B0000C007044000202146F8BD0C4A144009051B225205891821430022094BFFF7CAFEF9
:201B2000F8BDC046FE070000FF07000000005043AF3CFFFF59F3F8C21F6EA501FFFF0F809D
:201B40000000903C51C300000000F07FFCB40127FF07794002E0FCB40127FF070C024D0084
:201B60002D0E03D1002C52D1FCBC70473C43FF2D50D0A408002900D56442020243001B0E0D
:201B800004D1002A43D10800FCBC70473A43FF2B41D09208002800D552425E1B04D517006F
:201BA00022003C0076422B00192E06D527003741D2191C27F71B7F42BC40002A27D002D52E
:201BC0005242012700E00027013B5200FCD51500802635400FD01500202635402C438032E3
:201BE00008D21500402635402C4304D101263602B24300E05B1C5200023308DDFF2B0BD2B9
:201C0000500ADB051843FF073843FCBC70470020FCBC70470800C70FFF07FF20C00538436D
:201C2000FCBC7047F0B5294A8218294BC0180B79202B0DD0274C002B1CD10D686D1E45605B
:201C4000C56E25408835C5660646703688251CE00C68641E4460C46E1E4D2C401E4EA4199D
:201C6000C466046F2C40A41904671C4C01256D0706460AE00525ED010E6876084660C66E15
:201C800026407619C66606467036376827402F433760C46A124D2C40C462046B2C400463C1
:201CA0000024C4640465C46F8F25ED432C40C46714682C401460497919430268094B134036
:201CC000BD220A40D118891C0160F0BD841800000418000024493E0001040000FFFFFFCF0B
:201CE0008888FDFF4000FFCF80B58CB00B900A910B980A99401A09902448006804900998E1
:201D00000190234907910968401A00F0EDFE0146019803911F490968029100F0E5FE01468E
:201D2000029800F057F9039902460498059200F051F90599FFF70FFF0690174808900068E1
:201D400000F0D2FE0699FFF706FF00F027FF079A0146089801600999116000680F4988428D
:201D600004DBFFE70C49104808600AE00A4800680B49884204DCFFE707490A480860FFE711
:201D8000FFE7054800680CB080BDC046FC002020D401202000012020D0012020591B000092
:201DA000A7E4FFFFA8E4FFFF581B000080B58CB00B900A910B980A99401A099024480068E9
:201DC000049009980190234907910968401A00F08BFE0146019803911F490968029100F025
:201DE00083FE0146029800F0F5F8039902460498059200F0EFF80599FFF7ADFE0690174882
:201E00000890006800F070FE0699FFF7A4FE00F0C5FE079A01460898016009991160006816
:201E20000F49884204DBFFE70C49104808600AE00A4800680B49884204DCFFE707490A487C
:201E40000860FFE7FFE7054800680CB080BDC046FC002020DC01202000012020D8012020E7
:201E6000591B0000A7E4FFFFA8E4FFFF581B000080B586B0264801F033FA002846D0FFE74D
:201E8000642000F0AFFD00F0D7FE2248059000680A21039100F09EFC03991F4A10601F48D1
:201EA00004900068404200F095FC049A05991C4B18600020106008601A48006800281FD12E
:201EC000FFE71548006800F069FE01463C200190FFF70AFF40421449029108601048006833
:201EE00000F05CFE01460198FFF760FF014602984A420E490A6000680968FFF7E5FA04E0A3
:201F000000210846FFF7E0FAFFE7FFE706B080BD00400840E0012020F4002020E4012020C1
:201F2000F8002020F0002020E8012020EC012020F0B58B4200D1824204D90B0002000021D1
:201F4000002040E0002B00D1002A0CD10B00020000210020002B00D1002A01D0C943C043EA
:201F600000F037F82FE01C0015000B0002000CB4002126002F00FF19764102D2491C40294E
:201F8000F9D100201E001700FF19764102D2401C4028F9D10E1A21002800320000F088FFD7
:201FA0000C0005000CBC00200021A34200D1AA4201D3521BA341404149416D08E7073D4352
:201FC0006408761EF1D5059F002F01D03A607B60F0BD7047FCB40127FF0706004E4001D477
:201FE000002600E03E00020243001B0E30D03A43FF2B30D00C024D002D0E29D03C43FF2D4C
:2020000029D05B194240504042404C4061404C4000B500F0A5FD20BCAE464240504042405B
:202020004C4061404C4025001400002C01D46400013B803401D3013364087E3B08DDFF2B1D
:2020400009D2BC43200ADB0518433043FCBC70470020FCBC7047FF20C0053043FCBC70470A
:2020600070B582B0024601A80270009100214056002816D4FFE7002401A908570322D343FE
:202080001840174A805809578C07E50EFF24AC40A043009CA401E4B2AC4020431940885080
:2020A0001AE001A908780F24204008380322D34318400A4A8058002549578D07EE0EFF25F1
:2020C000B540A843009DAD01EDB2B54028432140083919408850FFE702B070BD1CED00E055
:2020E00000E400E0FCB40127FF0706004E40F60FF607020243001B0E2DD03A43FF2B2DD097
:202100000C024D002D0E26D03C43FF2D26D05B1B0020202164085208A2424041A24200D3D9
:20212000121B013904D0002A01D05200F4D18840384201D14000013B803001D3013300E02A
:2021400040007F3307DDFF2B08D2400ADB0518433043FCBC70470020FCBC7047FF20C005CB
:202160003043FCBC7047704770B582B04A790B79002A25D0184A202B02D00524E40100E09C
:20218000164C8218002B00D18824156C144E35402D191564556C35402C1954641468114D77
:2021A0002C40146054682C405460002414625462146D8F25ED432C401465546D2C405465E3
:2021C0000A6800926A461371897951711146FFF729FD02B070BDC046381800000104000056
:2021E00024493E008888FDFF80B584B01B491C48039000F0EBFE03981A49FFF7B5FF039848
:2022000000230193009319461A4600F071FF019A0398114600F0CCFE019A0398114601F090
:2022200093F8019B039801210291009119461A4600F05EFF0199029A039800F0B9FE019978
:20224000029A039801F080F8039801F00DF80398032101F013F804B080BDC0461135000055
:20226000002086409C350000F8B5451C00780023082B32D02F78C2070CD16A780F24144013
:20228000E41C122C0BD102242E57F4B2002E08D4EE1C0EE06D1C4A1C0F7011461AE0AE1C48
:2022A00008E02E1DED7800957F252C40009DED012C1912343D0112095219094DAA420ED0E7
:2022C000D243002C05D08D5C4F1C0D70641E3946F7E7354640085B1CCAE72846C5E7F8BD7E
:2022E000FF0F0000FEB502930F46194D0024E143184E00973740019043422B46BB4101D2BB
:202300000C4623E0084602990E405342B54101D204461BE0134601990B433E431E43029DCC
:20232000009E13D02B46334004D401998B1A3346AB4103E00199531A2B46B341044605DB43
:2023400051406E400E43701E864134462046FEBD0000F07FFFFFFF7F80B588B000200790EE
:20236000069000F07FFC154800F0CEFE0120049000F08EFC049800F08BFC049800F09EFCDB
:20238000049800F09BFC1020059000F081FC059800F094FCFFE70A48006800F065FB029049
:2023A00003910848006800F05FFB029A039B01910090054800F034F9EDE7C0460020864001
:2023C000F4002020F80020203C35000080B586B01348019000F038FE1248029000F034FE95
:2023E0001148039000F078FE1048049000F074FE0F48059000F0B8FE019800F001FE029889
:2024000000F0FEFD039800F05BFE049800F058FE059800F091FE102000F0C3FF06B080BD1A
:2024200000000A4000200A40002086400040084000801040F8B50446164F174D0E462E4028
:202440000120009464423C46B4411AD31D405442AF4116D31046009C20433543054311D0FB
:202460000020C0431C460C400ED4009CA41A0C469C4106DB0098504059400143481E814112
:202480000846F8BD0020F8BD009C141B1C468C41F0DAF6E70000F07FFFFFFF7FF8B51C46C9
:2024A00017460E46054600F06EFF0021012E03DBB04201DBA919491E002F04D02268531EA0
:2024C00023602E2313703246824206DD23685F1E276030271F70521EF6E7B04200DB304681
:2024E000012808DBA9420BD308782268531E23601070491EF6E72068411E2160302101701B
:20250000F8BD000010B5FFF795FF002801D0002010BD012010BDC04610B5FFF78BFF002870
:2025200001DB002010BD012010BDC04610B5FFF781FF002801DD002010BD012010BDC046BC
:2025400010B5FFF7CFFE002801DA002010BD012010BDC04610B5FFF7C5FE002801DC00206C
:2025600010BD012010BD000080B582B012491348019000F0BEFE0198114900F0EDF90198E4
:20258000002100F085FC019815212D2200F072F9019800F0C5FD0198702100F0F9FB01983E
:2025A000022100F009FC019800F00BFE019800F0FDFD02B080BDC0465A350000008010409A
:2025C0009235000070B514460F4D0B462B40002222600E4EB34215D81E46064312D01E0D01
:2025E00007D100220A4BFFF765F90D403522D2432B461B0D9A18074BD2182260064A0A40DC
:202600000649511870BDC046FFFFFF7FFFFFEF7F0000504302FCFFFFFFFF0F800000E03FAC
:2026200083B01EB505AC0EC401900F48006880470E4A9069401C0DD005A902910C4800904B
:2026400018320C4B01A8FDF73BFD04460A480068804704E00848006880470020C443204649
:202660001EBC02BC03B008470801202000002020ED330000E53300000C012020F0B587B0D6
:202680000191064602AD0020E874123537460A243846214600F04AF84443391BCA175140DB
:2026A000891A3031297009376D1E122F0746EED8002E01D46D1C01E02D20287002A8441B03
:2026C000224614320198294600F088FE1334204607B0F0BDF0B5FFB086B01C46154602462E
:2026E000A868002801D50620A8602368039304AB0090019305A80B46FEF792FC0646049F3A
:20270000AA683946234600F07FFA20680399814201D0012202E028680007C20F304639463C
:202720002346FFF7BBFE7FB006B0F0BD1CB5002922D04C08002900D5494242105440002818
:2027400000D5404200230A00904201D95200FBE790425B41904200D3801A914201D2520868
:20276000F6E71900002C00D54042640000D549420200080011001CBD01000020FEF74FFCC7
:202780001CBD7CB515460C460646C01731464140081A009200210A226423FEF727F9304654
:2027A0000930122808D8DF202040502804D02868411E296030210170002E01D42B2000E0B3
:2027C0002D2029684A1E2A6008702868411E296004707CBD80B588B0079006910D2005902F
:2027E000022004901E2003901A200290079800F07BF90A49FFF7EEFB0090029906984843FD
:2028000000F072F901460098FFF76CFC019001980349FFF767FC08B080BDC04600606A4745
:202820000000F04180B584B00390029101A900200880FFE703980078002814D0FFE7FFE7B5
:202840000B4800F085FC002801D0FFE7F8E70398411C03910178064800F0BEFC0198401C04
:2028600001A90880E6E701A8008804B080BDC0460080104080B584B00390029101920398A4
:202880000B49401802990B4A00F05AFA03980A49401801993F2200F053FA0399074A88184D
:2028A00089580122114000F04BFA04B080BDC04610110000FFFF000014110000041100003E
:2028C00080B582B00020019000F0EEFB01200090400200F0CDFA019800F040FB00F024FD88
:2028E00000F0AEFC0848FFF757F8102000F044FB00F0B0FC019800F053F800980199FFF7B2
:20290000AFFB02B080BDC046143500000CB54A00520D03231B02FF33D21A13D31F239A1A28
:2029200012D98E46C9020123DB071943D1400B2A02D21532D04001437346002B00D54942B2
:2029400008000CBD00200CBD0B000120C007002B00D401380CBD000070B511221302C21882
:20296000C4580125AC43C4500C888D7825438C882C43C558084E2E40084D2540AC19C4501A
:202980008879CB790343087A184351687E23994318400818506070BDE798FDFF186700004A
:2029A00010B50E490E4A01235C0590600868204205D10868204202D108682042F6D01068D1
:2029C0001B04034313600868C00605D40868C00602D40868C006F6D510BDC04604020B40DF
:2029E00004010B4080B582B0014601A801800088002803D1FFE700F04BFC10E0094908883C
:202A0000401C088080B201A90988884206D1FFE700F048FC034900200880FFE7FFE702B038
:202A200080BDC046F80120201CB50A0017D000230124E407A04200D20400944201D952006B
:202A4000FBE790425B41904200D3801A914201D25208F6E719000200080011001CBD0100FC
:202A60000020FEF7DCFA1CBD08B443001B0E0FD0FF2B11D00721C9015B18C10FC9020B4332
:202A8000010048074902090B1B05194308BC70470021002008BC704701004002C90DC900F2
:202AA000C91D090508BC704710B50E4902788B185B78401CDB06F9D400212D2A04D02B2AF0
:202AC00002D0401E134600E00378303B092B04D80A244C431919401CF6E72D2A00D14942BC
:202AE000084610BD1034000006B49E22002802D404D106BC7047414204D400E00100013A3A
:202B00004900FCD5803101D3013200E04900490AD2051143002802D50122D20711430800E5
:202B200006BC704770B50A480A4C84420CD00A4D0A4EB54208D02A686968501C1278920044
:202B4000A25890470835F4E700BF00BF70BDC046F4350000E8350000FC3500000C36000022
:202B6000FCB4020C0B0CFF242402FF34204021400C00444315005D4306005E430F005743AB
:202B8000320C3B0CA818C01832043B040025A1186841C9186841FCBC7047000006B5410027
:202BA000090E7F390DD41F22511A0CD9864600020122D2071043C8407246002A00D5404276
:202BC00006BD002006BD02000120C007002A00D4401E06BD80B582B008490948019000F0BC
:202BE000F5F901980749FEF7F1FD0198012100F0D1F9019800F038FB02B080BDA435000022
:202C0000004008405C350000F8B51C4615460646571800F0B8FB711E012D0CDB3022012FAD
:202C200002DB874200DCCA5D23685E1E26601A707F1E6D1EF0E7F8BD80B582B03220FEF772
:202C40008DFA014601A801700078012806D1FFE703490868424250410860FFE702B080BD20
:202C6000F000202080B5FFF7B1FBFEF739FDFFF727FEFFF7B9FAFFF7ADFFFFF775FC00F065
:202C80006BFB0249B8220020885480BD1401202081B001466846017000214056002809D4C8
:202CA000FFE7684601781F2001400120884002490860FFE701B0704780E200E081B00146E3
:202CC0006846017000214056002809D4FFE7684601781F2001400120884002490860FFE70A
:202CE00001B0704700E100E004B40422002802D1002104BC704701D50832404212021F3243
:202D00000100521E4900FCD30805090B1205114304BC704780B582B001900091FFE7074869
:202D200000F016FA002801D0FFE7F8E701A80178024800F051FA019802B080BD00801040D6
:202D400084B0039002910192039800680090009801998843009000980299019A11400843FC
:202D60000399086004B0704781B000900549042008600098401E04490860044900200860C9
:202D800001B0704710E000E014E000E018E000E080B584B0019101460198039102A90870BD
:202DA0000398044A801809787022FFF7C9FF04B080BDC0460C11000080B584B0019101466B
:202DC0000198039102A908700398044A801809780722FFF7B5FF04B080BDC0460C110000BA
:202DE000084880F3088800BF00BF00F00CFB002801D0FFF797FE0020FFF7AEFA012000F0B8
:202E0000F9FAC0460080202030B514004C4325001C0044436419050010002900FFF7A0FE5A
:202E2000001904000D002100280030BDB0B504460020002B08D0D2B20D782570954204D017
:202E4000641C491C5B1EF7D1B0BD601CB0BD000082B0019000910098034908430199890050
:202E6000024A885002B07047800004000480424080B582B0014601A8018001880F200202A7
:202E80000248FFF75DFF02B080BDC04604010B4080B582B00190009101981121090240189A
:202EA00000990322D203FFF74BFF02B080BD000018B520239B1A04D8010000205B42994018
:202EC00004E004009140DC402143904018BD000082B001900091009B0199034A8858184303
:202EE000885002B07047C0464810000082B001900091009B0199034A88581843885002B098
:202F00007047C0464810000082B001900091009B0199034A88581843885002B07047C04644
:202F20002810000081B0009000988100024A0348885001B07047C046048042408100040017
:202F400082B00190009100988021084301998900014A885002B070470480424080B582B07D
:202F6000014601A80170017802480322FFF7E8FE02B080BD00010B4080B582B0014601A89A
:202F80000170017802483022FFF7DAFE02B080BD04010B4082B001900091009B0199034AC8
:202FA00088581843885002B07047C0462810000010B592008018044A83580724A404A34386
:202FC00021405918815010BD3018000010B50122120383180C789C604B7883508978014A3F
:202FE000815010BD0C11000082B00190009100980199024A885002B07047C046D01200001B
:2030000081B0009000990120C2020248885001B07047C0460100002682B0019000910198CD
:20302000024940580099084002B070473810000081B0009000988100024A8120885001B0CB
:203040007047C0460480424081B000900099024A0248885001B0704704080000030000B1BD
:2030600082B00190009100980199024A885002B07047C0469012000082B001900091009BA6
:2030800001999D20420188581843885002B0704782B00190009100980199024A885002B0BE
:2030A0007047C046B012000081B001466846017000780249086001B07047C04608030B400B
:2030C00081B0009000990120C2020248885001B07047C0460100002681B000900099024A54
:2030E0000248885001B0704704080000030000B110B5029CA400001911431943014A81509A
:2031000010BDC0465018000081B000900099034A885801231843885001B070470418000012
:2031200081B00090009911200202885801235B041843885001B0704781B000900099012087
:20314000C2020248885001B07047C0460100002681B000900098034940580121084001B09C
:203160007047C0460811000081B000900099024A0248885001B0704704080000030000B189
:2031800082B00190009101982721C90140580099084002B0704782B0019000910198272119
:2031A000C90140580099084002B0704781B00090009911200202885801231843885001B0EC
:2031C000704781B00090009911200202885804231843885001B0704782B001906846017025
:2031E0000078019989225201885002B0704703228058002805D0401E4A1C00230B701146CB
:20320000F7E7704782B0019000910098019995225201885002B0704782B00190009100985C
:20322000019995225201885002B0704782B0019000910098019995225201885002B07047D8
:203240000349086801221202904308607047C04608010B4003490868012212031043086080
:203260007047C04604010B4081B000900099024A0120885001B070470811000082B001905E
:2032800000910098019911221202885002B0704780B5012041020248FFF7B4FF80BDC04614
:2032A00000200A4080B5012041020248FFF7F0FE80BDC04600200A4040B584B002AE0096C1
:2032C000FEF736FE029A039B04B040BDC9B202788A4204D0002A01D0401CF8E70020704738
:2032E00081B000900098812149014058C0B201B0704710B50122120383180C789C6049783E
:20330000815010BD10B500239A4203D0CC5CC4545B1CF9E710BD80B50B4603214258C11DF2
:20332000184600F05BF880BD02490868012290430860704708010B40024908680522104356
:203340000860704710E000E092008018014A81507047C0461018000080B501200006FFF701
:2033600003FDFFF7E9FF80BD00214258091D002AFBD1081F801070470B4611461A4680B5B0
:2033800000F008F880BD0021425C491C002AFBD1481E704700239A4202D0C1545B1CFAE78B
:2033A0007047811E091F00BFFCD2704702460B462046294600E0000082B00094014C019455
:2033C00010BD00BF8D0E00000022304639462B4670470000004870470401202080B5FFF718
:2033E00091FF80BD80B5FFF795FC80BD80B5FFF719FA80BD00F003F8FEE7FFE7FEE700BF32
:103400007047EDE4704701207047000000000000A5
:203410000080808080808080808090909090908080808080808080808080808080808080CC
:20343000801804040404040404040404040404040402020202020202020202040404040480
:2034500004044343434343434141414141414141414141414141414141414141040404049E
:203470000404232323232323212121212121212121212121212121212121212104040404BE
:2034900080000000000000000000000000000000000000000000000000000000000000009C
:2034B0000000000000000000000000000000000000000000000000000000000000000000FC
:2034D0000000000000000000000000000000000000000000000000000000000000000000DC
:2034F0000000000000000000000000000000000000000000000000000000000000000000BC
:20351000000800000100000000000000000000004000000000000000000000000200000050
:2035300004000000010000002C00C4414D415F52504D3A252E326C662020094D425F5250FF
:203550004D3A252E326C660D0A00080002000000D330000001000000000000000000000058
:2035700030313233343536373839414243444546003031323334353637383961626364659D
:20359000660000001800000000300000401F00002000010008001F000000000000000000C6
:2035B000005500000F0112014001018F012202C01502030F01240440FF000004BF02017FF7
:2035D0007EFE0D796666A63F6666262D4010316721003300FFF00000692200001733000009
:2035F000EF31000002000000EC000000B035000000002020F435000014012020000000000A
:00000001FF
