:2000000000402020D3320000CB320000CB3200000000000000000000000000000000000061
:20002000000000000000000000000000CB3200000000000000000000CB320000CB320000C9
:20004000CB3200005D110000CB320000CB320000CB320000CB320000CB320000CB32000047
:2000600000000000CB320000CB3200000000000000000000CB320000CB320000CB3200008F
:20008000B51D0000CB320000CB320000CB320000CB320000CB32000000000000000000009D
:2000A000CB320000CB3200000000000000000000CB32000000000000CB320000CB3200004F
:2000C000F0B5FFB08EB0049306920646929802900025E84305908C913468204603F0BBF8AD
:2000E00021188B9503918C4200D3BBE00020879087A908738890059889902F46049D207879
:20010000002800D1AFE0252805D0641C34600699A8477F1CF3E78B97601C306087AC204657
:20012000314600F0A7F88CAA2046314600F0BFF8306801787A2925D0682919D06A2908D071
:200140006C290ED0742908D04C2922D1879980221BE087990122D20217E0879901225203EC
:2001600013E0427887996C2A64D10122120205E042788799682A60D101225202114387914B
:20018000801C05E08799012212030A438792401C0178441C346087A8017373291FD06E2992
:2001A00029D1879832490840202850D040283CD001214A03904238D04A02904242D0CA0242
:2001C000904205D00A0390422FD0090288422CD1F8178C9904C98C91176050603BE087A839
:2001E0000078400619D4009587A88CAA8BAB069900F01DF92FE007AD87A98CAA284600F0F8
:200200006DF9024628460699029B9847411C059D00D0C5198B9503991FE0009587A88CAA45
:200220008BAB069900F09FF815E08C9802C88C900F6010E0401C402201E0401C2022114373
:200240008791A5E78C9802C88C900F7003E08C9802C88C900F8003998B9D681C00D042E7B4
:20026000059F00E02F4638467FB00EB0F0BDC046603F000010B50A681378302B0FD0232B7E
:2002800007D02B2B09D02D2B05D0202B0ED1042306E0082304E0012302E0022300E01023A7
:2002A00004681C430460521C0A60E5E710BDFEB516460D460446086802782A2A10D130683B
:2002C000011D316000686060002805D54042606020680121014321602868471C2F6017E01B
:2002E0000021303A092A08D84218531C2B60435C6F467B545278491CF3E76A460023535466
:2003000012784718002A03D0684602F02BFB606038782E2826D1781C286079782A2908D13B
:200320003068011D31600068A0602868401C2860FEBD00203039092908D839188A1C2A60C3
:200340004A786B461A548978401CF3E76A46002111541078002804D0684602F003FBA0602D
:20036000FEBDA160FEBDF0B587B01E460C9F13681C1D14601D68002D3BD00491069084681F
:20038000002C04D4284602F057FF844203D3284602F052FF044606984068A042039000DC75
:2003A000204601463068019140180296306005940398A0420EDD06980078C0070AD1059890
:2003C00001990E1A0024B44204DA20200499B847641CF8E70026049C069805998E420BDA71
:2003E0002868010A19D12D1DC0B22146B847761CF2E70020B84718E00599039A8A4214DDDC
:200400000078C00711D00198451A0024AC420CDA20200499B847641CF8E70020C0430299D3
:20042000086002F03FFF5821016007B0F0BDF0B585B00C4606460A9D1068011D1160006858
:200440000490002844D00393B768002F04D4049802F001FF874203D3049802F0FCFE07460E
:2004600002967268BA42114600DC3946039B18680091401818600192BA420FDD0298007850
:20048000C0070BD10098C01B039000260398864204DA20202146A847761CF7E70026BE4220
:2004A00005DA0498805D2146A847761CF7E70198B84210DD02980078C0070CD00098C61B70
:2004C0000027B74207DA20202146A8477F1CF8E700202146A84705B0F0BDC046F0B589B04F
:2004E00001920F460446FF210846FA30251878680290002607960391FE31202220460092C3
:2005000002F0A2FE7F20800006942118089104952E713D46387B0246613A172A2AD8012306
:2005200093402C46B44D2B42254608D007A908AA2846019B00F066F900260596B3E0712520
:200540002B42254622D1022A14D1019B1868021D1A600068C2B2534253410593039AFC32A2
:20056000069B9A18089208702868022188432860002698E001464539032907D3252860D02A
:20058000412803D058280596D0D08DE0019A1068C11D0720814308460830106005C9D14343
:2005A0002F7B4900490D0BD17B3F944911400143049C2CD01920C1438F4234D36E2033E098
:2005C000002A01D4114602E00121C9075140D60F002205923A46413A062A0BD9613F062FDE
:2005E00061D8C0467F443F797F00BF440B5C5C5C3B3631007A441279520097440354545489
:20060000332E290008AB2A4600F042FA4BE0002311461A46059301F0DDFE1921C9438F4281
:2006200025D3662224E04E20E0708F4201D3612100E04121A17008946070002005900226B5
:2006400031E0002006994870252008700120A1E008AB2A4600F02CFB25E008AB2A4601F060
:2006600097FF20E008AB2A4600F008FE1BE04622E2708F4201D36E2200E04E22A2708F42AE
:2006800001D3692100E0492161703F21C900069A51180891002803D02D202070042602E032
:2006A0002B2020700326287B012701466F39092904D801228A4052490A4201D158286BD10C
:2006C000049B029C04972946069F3D1908980C460978C90707D1191D091A62689142069F22
:2006E00001DC691A4F1C411C0398430000263846324602F01BFB08900599002903D0411C41
:200700000891067000E00146A94206D8481E691A491C202202F098FD2E702078C00605D4EE
:200720000698391A202202F08FFD2EE0069887422BD00698391A3026324602F085FD0798C6
:200740004142414104980140012905D12078400702D43846069905E03878069A511C1070C3
:20076000781C3E70227B412A0CD0582A05D0612A08D0782A01D0702A07D123781B0701D422
:20078000612A02D142784A704670069802F063FD0599401809B0F0BD002E09D0012E049BB0
:2007A000029C8FD10120079029680220084007E0079A296802200840002A09D0049B029CC5
:2007C00008994A1E08922D220A704742474179E70028049B029C08D1480700D472E70898E2
:2007E000411E0891009901706CE70898411E08912B210170002765E708C19000FFFF0F0076
:2008000043020000F8B514460F4605468068002804D4286810218843286001E00120A860E6
:20082000287B1026582808D0782806D0702804D06F2801D1082600E00A262846194600F041
:2008400055F8AA68002A09D102460A4306D12878000749D52B7B0020024612E02B7B642BCF
:2008600003D1642300290BD504E0692B08D1002906D5692301223A60002240428A4100E027
:200880000A4600941146324600F0B0F8A968884206DA401C21684A1E226030220A70F5E7DB
:2008A000287B582803D0782801D070280FD1297809070CD5702800D1782021684A1E226053
:2008C00008702068411E216030210170287B6F280AD12878000707D520684178302903D071
:2008E000411E216030210170F8BDC04610B5037B702B05D10868021D0A60006800226FE015
:200900000068384A024001204403A24222D0402A20D00402A24230D04402A24246D0C40223
:20092000A2422AD00403A24214D0202A12D100221C46643C142C06D8A0402B4C204204D10D
:20094000212420423ED1582B49D10868031D0B60008845E000221C46643C142C06D8A0407A
:20096000214C204204D1212420422BD1582B36D10868031D0B60006832E01A46643A142AF5
:2009800006D89040184A104206D12122104203D10020582B024623D10868C21D072082439B
:2009A0001046083008601068526819E000221C46643C142C0CD8A0400B4C20420AD1212415
:2009C000204205D00868021D0A600068C21707E0582B04D10868031D0B60007800E01046BE
:2009E000114610BD603F000000081200FEB501920D460646582B01D0174800E015480090B5
:200A0000089802903046284305D1029A1068411E116030210170019C3046284313D0304670
:200A20002946224600F01AF807460D46224602F06BF9301A0099085C029B19684A1E1A6038
:200A400008703E46E8E70298006802F004FC401EFEBDC046403400005134000080B5102A50
:200A600006D0082A09D1C0084A078018C90880BD00090A078018090980BD002904D111467F
:200A800001F030FF002180BD002302F07DFB80BDF0B5A5B0049308920E46074600240A9480
:200AA0007E4D22462B4601F0A9FC002813D100247B4D3846314622462B4601F095FC00288C
:200AC00009D1002238463146134601F079FC00283C46354607D10AAA2046294601F0D0FC23
:200AE0000A98401E0A900899087B0BAE412801D06D4800E06B480990886801903020039000
:200B000030700022079220462946134601F062FC01210028029101D0C8074540771C204602
:200B20002946079A134601F04BFC00280DD124AA2046294601F0A4FC249801210A1A204672
:200B4000294600F09BFF04460D462046294601F03BFE06463946059701F0EEFC06903046B2
:200B600002F042F802F08AFB04460D460198471C20D305980699461800222046294613465C
:200B800001F01EFC002848D1002220462946474B00F094FE04460D4601F016FE0999095C55
:200BA000771C317002F020F802F068FB04460D463E46E1E70BA806994618002F16D07F1E57
:200BC000002220462946394B00F078FE04460D4601F0FAFD0999095C3246761C517002F0EB
:200BE00003F802F04BFB04460D46E6E73178099C204602F0D3FA001B08280EDB0196741E88
:200C0000089D079F099E2178304602F0C7FA801B0E2805DD2770641EF5E7089D079F04E049
:200C20000999081840782070019E37700A98297B4129049C01D0702100E05021069E059F19
:200C4000224601F0FCFCAA68501C04D1384602F002FB421EAA6038463146234601F06AFF61
:200C6000A8680028029A02D128680007C20F38463146234601F070FB287B412801D0782036
:200C800000E0582021684A1E226008702068411E21600399017025B0F0BDC0460000F07FA5
:200CA0000000F0FF403400005134000000003040F0B5A3B003930F460446049291680029F7
:200CC00003D0002904D5062100E001210498816007910AA8302108910170002520463946EA
:200CE0002A462B4601F076FB01210028059101D0C8074740624E20463946604A334601F001
:200D000087FB002809D00022204639465E4B00F059FC04460F466D1CEDE75A4E002220462F
:200D200039460992134601F04BFB002811D1002220463946334601F04DFB002809D0002223
:200D400020463946504B00F0B9FD04460F466D1EE4E702950AA8451C2046394601F034FDC7
:200D60000695294601F0E8FB07998842019004DD481C0AA90A18085C1FE0C9430E180AA938
:200D80000D18681C07902046394601F01DFD01F02BFF02460B462046394600F077F8002209
:200DA000394B00F08BFD04460F4601F00DFD079A30306870761C1546E3D3C0B23528039EB1
:200DC000049F029B099D0FD31446501E0178491CCAB201703A2A03D330210170401EF5E782
:200DE0000AA98842224640D00198C41815700220C043844202DBB868844207DD601E397B40
:200E0000891EC9B2324601F01AFC0124069802F022FA401E0599A0421ADB0028089A01D4EE
:200E2000069A125C1346303B5D1EAB41C9431943C90705D13978090702D40025059905E02C
:200E400031684B1E33600A7001250021401EE2E73868082202402A43501E82410698214666
:200E6000334601F079FA23B0F0BD501E002101700198C018441C0AA80690B8E70000C0FF9E
:200E8000FFFFDF410000F03F00002440FCB40124E407634002E0FCB40124E40708B41D03C0
:200EA000ED08D60D354356025F007F0D06D12C00344300D0AEE001B0FCBC7047A408254393
:200EC00007242402FF34A74205D10020190D090501B0FCBC7047002B03D50024A61BAC4186
:200EE00025000B03DB08C20D134342024800400D07D11C00144300D08CE00EBC1000F0BCD1
:200F0000704701246407234307242402FF34A04205D10020090D090501B0FCBC704700295B
:200F200003D50024A21A9C412300C11B08D51C002B0025001400320026000024611A380091
:200F4000362925D502B4393949420C00203C03D22F008F40374301E03700A740002F01D0D1
:200F600040210E4302BC20290BD500290ED04C42203420B4A5402C0020BC0D41CE40361983
:200F800004E000292E000D4120390E4192196B411C0014433ED00024002B04D501240021DA
:200FA0008A1A99410B00401E52005B41FBD50121890215000D400CD0521800277B4101D380
:200FC000401C0BE00721C90115000D4001D189008A43072109028A4352005B41801C19DDCE
:200FE00007210902FF31884209D30EBC0020C90F0902FF31C900C91D0905F0BC7047190BA7
:2010000000050143E40721431805120B104301B0FCBC70470021002001B0FCBC7047704773
:20102000F0B587B01D4616463024059004700027104619463A463B4601F0CCF90028019468
:2010400002D00120C00745400D9804900C9803903F4C304629463D4A234601F0D9F9002896
:2010600009D00022304629463B4B00F0ABFA06460D467F1CEDE70598441C00223046294663
:201080000692134601F09CF9002811D1002230462946304B01F09EF9002809D0002230462C
:2010A00029462D4B00F00AFC06460D467F1EE4E70398C01903903046294601F085FB214688
:2010C00001F03AFA02942418C019049908600398471C012F1ADB3046294601F075FB01F0E1
:2010E00083FD02460B4630462946FFF7CFFE0022194B00F0E3FB06460D4601F065FB30308B
:20110000611C20707F1E0C46E5D100E02146481E0278352A0DD3891E019C0A78521CD3B2FE
:201120000A703A2B02D30C70491EF6E7059A914204D006990170029807B0F0BD06990170D7
:2011400004990868401C08600598F5E70000C0FFFFFFDF410000F03F0000244080B582B06E
:20116000032041063F4801F0C9FE3F4901910860112001053D4801F0C1FE014601983C4A72
:201180001160C0788007002813D5FFE701208106344801F067FF002805D1FFE735490868DC
:2011A000401E086004E033490868401C0860FFE719E02D48C0784007002813D5FFE70120EB
:2011C0004106284801F04EFF002805D1FFE729490868401C086004E026490868401E086007
:2011E000FFE7FFE7FFE722488078C006002813D5FFE7012001061D4801F034FF002805D170
:20120000FFE71D490868401E086004E01A490868401C0860FFE719E01548C078C00700286E
:2012200013D0FFE701200105104801F01BFF002805D1FFE710490868401C086004E00E49AF
:201240000868401E0860FFE7FFE7FFE703204106044801F0BDFD11200105044801F0B8FD1C
:2012600002B080BD00000A40E801202000200A40EC012020D8012020DC012020F0B5A1B049
:20128000049305469068002801D5062090600290039200243D4F2846224606913B4601F0AA
:2012A000ADF806990028264614D10026384F284632463B4601F098F8069900280AD1002218
:2012C00028460592134601F07BF8069B00282E461F4622D12F4D01F0DFFF01F07BF80028E0
:2012E00009D00022304639462B4B00F0E7FA06460F46641EEFE7284D01F0CEFF01F07EF824
:20130000002807D001F0C8FF00F05CF906460F46641CF1E735463B46059407A80299009168
:20132000019008A82A46FFF77BFE0446079D022D0DD1059D6D1C204601F08DFF2018401EEE
:201340000021017028460125049E039F02E0049E039F0598397B324601F071F9BA68204651
:201360002946334601F0E6FB204601F074FF854203D138680007C20F00E0012220462946FE
:20138000334600F0E9FF21B0F0BDC0460000F07F0000F0FF0000F03F0000244080B58CB016
:2013A0000E200821019101F03DFD40480A90042101F08CFD01990F2001F034FD01990A9831
:2013C00001F084FD14200221029101F02BFD0299152001F0BDFC002203920092012008901C
:2013E000C30404932720114601F070FB192001F091FD252001F08EFD262001F08BFD23201A
:2014000001F088FD222001F085FD039A049B00923620114601F05AFB039A049B00923A20B8
:20142000114601F053FB039A049B00922F20114601F04CFB039A049B00923320114601F001
:2014400045FB1B20410305911948069001F055FE0599069801F03AFD06980521890401F056
:201460007DFD069803214906079101F0BFFC0698079901F0C9FC08990A984902099101F090
:201480003CFE09990A9801F021FD0A98094901F065FD0A98112109050B9101F0A7FC0A98C4
:2014A0000B9901F0B1FC0CB080BDC04600200A4000000A400001010080B58EB00D900C9188
:2014C0000D9801281DDBFFE701200A9041033B480B9001F037FD0A990B98890301F003FE5A
:2014E0000D98012803DBFFE70D98099003E00D9840420990FFE709993148002201F08CFEDB
:201500001CE00120079081032C48089001F01AFD07990898490301F0E6FD0D98012803DB73
:20152000FFE70D98069003E00D9840420690FFE706992348002201F06FFEFFE70C980128C7
:201540001DDBFFE70120049041041C48059001F0F9FC04990598090401F0C5FD0C9801280D
:2015600003DBFFE70C98039003E00C9840420390FFE703991248012201F04EFE1CE001207B
:20158000019001040D48029001F0DCFC01990298490401F0A8FD0C98012803DBFFE70C98B9
:2015A000009003E00C9840420090FFE700990448012201F031FEFFE70EB080BD00000A40C9
:2015C00000208640FCB40C005C40E40FE40710B41D032D0B56006D415F007F0D73D001247C
:2015E0006405254307242402FF34A74261D00B031B0B42005B414800400D64D00124640513
:20160000234307242402FF34A04252D0C01B002100273624AB4200D1B24204D37F4149418C
:20162000921BAB4101E07F414941641E06D0002B01D1002A02D052005B41EBE7202C07D2B0
:20164000162C0AD33900A7402026361BF1400BE0203C3900A140002706E0A1402026361B9D
:201660003D00F5402943A74001246405214202D17F004941401E00247F1C61410124A4054B
:20168000214202D0401CA14301E06408A14303242402FF34001916DD2419A04209D8CC0745
:2016A0004908000501437808204310BC2143FCBC704702BC0020C90F0902FF21C900C91D7E
:2016C0000905FCBC70470021002001B0FCBC7047F0B5394A8218394BC0183A4D4C790B793E
:2016E000002C22D0466F202B02D00524E70100E0354F2E40002B00D188273E434667846F4B
:201700002C403C438467446B2D4E34404463846B3440846300244465846554688F26F64304
:20172000344054609468344094600C688979202B09D006467036002B15D1641E4460C46E28
:201740002C40882715E0641E4460C46E2C401E4E3443C466046F2C40344304671B4D01245A
:201760006707064607E00527FF0164084460C46E2C403C43C46634682C403C433460C46AFC
:201780000F4D2C40C462046B2C4004630024C4640465C46F8F25ED432C40C46714682C40CE
:2017A0001460194302680A4B1340BD220A40D118891C0160F0BDC0468418000004180000C4
:2017C0008888FDFF24493E0001040000FFFFFFCF4000FFCFB0B5364A80184A6842600A7820
:2017E000222A56D8930001A4E3589F468918000093180000891800009318000093180000D4
:20180000931800009318000093180000931800009318000093180000931800009318000070
:20182000931800009318000093180000791800009318000079180000931800009318000084
:20184000931800009318000093180000931800009318000093180000931800009318000030
:20186000931800009318000093180000791800009318000079180000036803242407A343F7
:20188000012464071B1903E0036803242407A34303600B69C360CB68C46A064D2540064C99
:2018A0001C402B19C362097A11430160B0BDC046041800008888FDFF77770200FCB50C00E3
:2018C0005C40E40FE40710B4DD02540D2543D6025F007F0D60D00124E40725430724240266
:2018E000FF34A74250D0CB02440D2343C2024800400D51D00124E407234307242402FF34B4
:20190000A04241D0C01901B41800290001F0A4F80F0001B41800310001F09EF803000C00D5
:201920001000310001F098F806001000290001F093F805007618002202BC01BC55415141D2
:20194000A419554151418024A4005B195141FF18514100D564003F19514102D47F004941A9
:2019600000E0401C03242402FF34001B14DD2419A04209D80305F80A4C0520434900090B84
:20198000194310BC2143FCBD0020FF21C900C91D090510BC2143FCBD0021002001B0FCBD71
:2019A000F0B584B03049314A0125AC0316682B0203939E4316600E68264205D10E6826425B
:2019C00002D10E682642F6D06C02467E9769AF432E40BD1995612025455DD6690327BE43E1
:2019E0003D407519D561224D2E680727374005262E60466A33681362736853622F60C36938
:201A00005B065B0CD5697F263602B543EB18D361E8C8009707680197476802971B071B0BD6
:201A20002D03ADB2ED1833071B0D007A009E35431D43019B1D43029B1D43054390690D4B2E
:201A400003400D482840C01890611068039B184310600868204205D10868204202D108681F
:201A60002042F6D004B0F0BD04020B4008010B40001340408D00F0FF72FF0F00F8B51546A1
:201A80002A4E0A0D771C3A40294B9A4213D00C46002A18D10122D2079443044344D00022C2
:201AA000244BFFF70BFF0C4623498D4208DC234A234B214636E002460B46FFF7ECF9F8BDC5
:201AC000220D3A40363A5119B1420ADD01F0EAFB222101600120C00704401D482118002045
:201AE000F8BD012904DB174A144009052143F8BD3522D24391420CDC01F0D4FB22210160C1
:201B000012488542E6DA0120C007044000202146F8BD0C4A144009051B225205891821432B
:201B20000022094BFFF7CAFEF8BDC046FE070000FF07000000005043AF3CFFFF59F3F8C229
:201B40001F6EA501FFFF0F800000903C51C300000000F07FFCB40127FF07794002E0FCB44D
:201B60000127FF070C024D002D0E03D1002C52D1FCBC70473C43FF2D50D0A408002900D59A
:201B80006442020243001B0E04D1002A43D10800FCBC70473A43FF2B41D09208002800D556
:201BA00052425E1B04D5170022003C0076422B00192E06D527003741D2191C27F71B7F4225
:201BC000BC40002A27D002D55242012700E00027013B5200FCD51500802635400FD01500CB
:201BE000202635402C43803208D21500402635402C4304D101263602B24300E05B1C5200FE
:201C0000023308DDFF2B0BD2500ADB051843FF073843FCBC70470020FCBC70470800C70FB1
:201C2000FF07FF20C0053843FCBC704780B58CB00B900A910B980A99401A0990244800681C
:201C4000049009980190234907910968401A00F0C7FE0146019803911F490968029100F06A
:201C6000BFFE0146029800F093F9039902460498059200F08DF90599FFF771FF06901748C4
:201C80000890006800F0ACFE0699FFF768FF00F001FF079A0146089801600999116000685A
:201CA0000F49884204DBFFE70C49104808600AE00A4800680B49884204DCFFE707490A48FE
:201CC0000860FFE7FFE7054800680CB080BDC046F8002020CC012020FC002020C801202092
:201CE000591B0000A7E4FFFFA8E4FFFF581B000080B58CB00B900A910B980A99401A09900A
:201D000024480068049009980190234907910968401A00F065FE0146019803911F490968BA
:201D2000029100F05DFE0146029800F031F9039902460498059200F02BF90599FFF70FFFFD
:201D4000069017480890006800F04AFE0699FFF706FF00F09FFE079A0146089801600999A4
:201D6000116000680F49884204DBFFE70C49104808600AE00A4800680B49884204DCFFE706
:201D800007490A480860FFE7FFE7054800680CB080BDC046F8002020D4012020FC00202030
:201DA000D0012020591B0000A7E4FFFFA8E4FFFF581B000010B588B0224801F0F9F90028A6
:201DC0003ED0FFE7642000F06BFD1F48039000680A21019100F05CFC01991C4A04921060C6
:201DE0001B4802900068404200F052FC029B039A01460498174C0594216000211960116021
:201E0000006800F047FE01460E20C0430690FFF70DFF0146059849420F4A079211600068DB
:201E200000F038FE01460698FFF762FF014607984A420A490A6000680968FFF73DFBFFE724
:201E400008B010BD00400840D8012020F0002020DC012020F4002020E0012020E401202095
:201E6000F0B58B4200D1824204D90B0002000021002040E0002B00D1002A0CD10B00020000
:201E800000210020002B00D1002A01D0C943C04300F037F82FE01C0015000B0002000CB4CF
:201EA000002126002F00FF19764102D2491C4029F9D100201E001700FF19764102D2401C1D
:201EC0004028F9D10E1A21002800320000F070FF0C0005000CBC00200021A34200D1AA4212
:201EE00001D3521BA341404149416D08E7073D436408761EF1D5059F002F01D03A607B60F0
:201F0000F0BD704780B584B01E491F48039000F0CFFF03981D49FFF7DBFB039800230193B6
:201F200019461A4600F03EFD019B0398009319461A4601F04FF8019A0398114600F0AAFFD0
:201F4000019A03987D21490101F066F9019B039801210291009119461A4601F03BF8019919
:201F6000029A039800F096FF0199029A039801F053F9039801F0E0F80398032101F0E6F8A5
:201F800004B080BDE1330000002086406C340000FCB40127FF0706004E4001D4002600E069
:201FA0003E00020243001B0E30D03A43FF2B30D00C024D002D0E29D03C43FF2D29D05B1925
:201FC0004240504042404C4061404C4000B500F043FD20BCAE464240504042404C4061403E
:201FE0004C4025001400002C01D46400013B803401D3013364087E3B08DDFF2B09D2BC43B1
:20200000200ADB0518433043FCBC70470020FCBC7047FF20C0053043FCBC704770B582B0CD
:20202000024601A80270009100214056002816D4FFE7002401A908570322D3431840174ADC
:20204000805809578C07E50EFF24AC40A043009CA401E4B2AC402043194088501AE001A9D5
:2020600008780F24204008380322D34318400A4A8058002549578D07EE0EFF25B540A843F5
:20208000009DAD01EDB2B54028432140083919408850FFE702B070BD1CED00E000E400E0B1
:2020A000FCB40127FF0706004E40F60FF607020243001B0E2DD03A43FF2B2DD00C024D0040
:2020C0002D0E26D03C43FF2D26D05B1B0020202164085208A2424041A24200D3121B01390E
:2020E00004D0002A01D05200F4D18840384201D14000013B803001D3013300E040007F33E0
:2021000007DDFF2B08D2400ADB0518433043FCBC70470020FCBC7047FF20C0053043FCBCD2
:2021200070477047F8B5451C00780023082B32D02F78C2070CD16A780F241440E41C122C5F
:202140000BD102242E57F4B2002E08D4EE1C0EE06D1C4A1C0F7011461AE0AE1C08E02E1D94
:20216000ED7800957F252C40009DED012C1912343D0112095219094DAA420ED0D243002C1A
:2021800005D08D5C4F1C0D70641E3946F7E7354640085B1CCAE72846C5E7F8BDFF0F0000F2
:2021A000FEB502930F46194D0024E143184E00973740019043422B46BB4101D20C4623E0B5
:2021C000084602990E405342B54101D204461BE0134601990B433E431E43029D009E13D0E2
:2021E0002B46334004D401998B1A3346AB4103E00199531A2B46B341044605DB51406E40C7
:202200000E43701E864134462046FEBD0000F07FFFFFFF7F80B588B000200790069000F0E8
:20222000A1FC154800F0E2FE0120049000F0B0FC049800F0ADFC049800F0C0FC049800F07A
:20224000BDFC1020059000F0A3FC059800F0B6FCFFE70A48006800F065FB029003910848CC
:20226000006800F05FFB029A039B01910090054800F034F9EDE7C04600208640F0002020F6
:20228000F40020200C34000080B586B01348019000F04CFE1248029000F048FE114803902B
:2022A00000F08CFE1048049000F088FE0F48059000F0CCFE019800F015FE029800F012FE66
:2022C000039800F06FFE049800F06CFE059800F0A5FE102000F0CDFF06B080BD00000A40B7
:2022E00000200A40002086400040084000801040F8B50446164F174D0E462E4001200094FF
:2023000064423C46B4411AD31D405442AF4116D31046009C20433543054311D00020C043CE
:202320001C460C400ED4009CA41A0C469C4106DB0098504059400143481E81410846F8BD73
:202340000020F8BD009C141B1C468C41F0DAF6E70000F07FFFFFFF7FF8B51C4617460E465C
:20236000054600F078FF0021012E03DBB04201DBA919491E002F04D02268531E23602E23B4
:2023800013703246824206DD23685F1E276030271F70521EF6E7B04200DB3046012808DB8A
:2023A000A9420BD308782268531E23601070491EF6E72068411E216030210170F8BD0000B3
:2023C00010B5FFF795FF002801D0002010BD012010BDC04610B5FFF78BFF002801DB00206B
:2023E00010BD012010BDC04610B5FFF781FF002801DD002010BD012010BDC04610B5FFF73F
:20240000CFFE002801DA002010BD012010BDC04610B5FFF7C5FE002801DC002010BD01207A
:2024200010BD000080B582B012491348019000F0C8FE0198114900F0EDF90198002100F0F8
:20244000A7FC019815212D2200F072F9019800F0D9FD0198702100F01BFC0198022100F024
:202460002BFC019800F014FE019800F006FE02B080BDC0462A340000008010406234000054
:2024800070B514460F4D0B462B40002222600E4EB34215D81E46064312D01E0D07D100220F
:2024A0000A4BFFF70BFA0D403522D2432B461B0D9A18074BD2182260064A0A4006495118B8
:2024C00070BDC046FFFFFF7FFFFFEF7F0000504302FCFFFFFFFF0F800000E03F83B01EB5A0
:2024E00005AC0EC401900F48006880470E4A9069401C0DD005A902910C48009018320C4BF2
:2025000001A8FDF7DDFD04460A480068804704E00848006880470020C44320461EBC02BCF1
:2025200003B008470401202000002020BD320000B532000008012020F0B587B0019106463B
:2025400002AD0020E874123537460A243846214600F04AF84443391BCA175140891A3031F6
:20256000297009376D1E122F0746EED8002E01D46D1C01E02D20287002A8441B224614329A
:202580000198294600F092FE1334204607B0F0BDF0B5FFB086B01C4615460246A8680028DB
:2025A00001D50620A8602368039304AB0090019305A80B46FEF734FD0646049FAA6839467F
:2025C000234600F0B7FA20680399814201D0012202E028680007C20F304639462346FFF778
:2025E000BBFE7FB006B0F0BD1CB5002922D04C08002900D5494242105440002800D5404262
:2026000000230A00904201D95200FBE790425B41904200D3801A914201D25208F6E719000A
:20262000002C00D54042640000D549420200080011001CBD01000020FEF7F1FC1CBD7CB552
:2026400015460C460646C01731464140081A009200210A226423FEF7C9F93046093012288A
:2026600008D8DF202040502804D02868411E296030210170002E01D42B2000E02D20296889
:202680004A1E2A6008702868411E296004707CBD80B588B0079006910D2005900220049098
:2026A0001E2003901A200290079800F099F90A49FFF76EFC009002990698484300F090F9DC
:2026C00001460098FFF7ECFC019001980349FFF7E7FC08B080BDC04600606A470000F041B1
:2026E00080B584B00390029101A900200880FFE703980078002814D0FFE7FFE70B4800F0E5
:2027000099FC002801D0FFE7F8E70398411C03910178064800F0C7FC0198401C01A9088039
:20272000E6E701A8008804B080BDC0460080104080B584B003900291019203980B4940186B
:2027400002990B4A00F07CFA03980A49401801993F2200F075FA0399074A881889580122F2
:20276000114000F06DFA04B080BDC04610110000FFFF0000141100000411000080B582B0FA
:202780000020019000F002FC01200090400200F0EFFA019800F054FB00F02EFD00F0B8FC37
:2027A0000848FFF7FDF8102000F058FB00F0BAFC019800F053F800980199FFF72FFC02B0EC
:2027C00080BDC046E43300000CB54A00520D03231B02FF33D21A13D31F239A1A12D98E4639
:2027E000C9020123DB071943D1400B2A02D21532D04001437346002B00D5494208000CBDE2
:2028000000200CBD0B000120C007002B00D401380CBD000070B511221302C218C458012552
:20282000AC43C4500C888D7825438C882C43C558084E2E40084D25407419C4508879CB7990
:202840000343087A184351687E23994318400818506070BDE798FDFF1867000010B50E49B4
:202860000E4A01235C0590600868204205D10868204202D108682042F6D010681B040343C9
:2028800013600868C00605D40868C00602D40868C006F6D510BDC04604020B4004010B4035
:2028A00080B582B0014601A801800088002803D1FFE700F055FC10E009490888401C0880DF
:2028C00080B201A90988884206D1FFE700F052FC034900200880FFE7FFE702B080BDC04611
:2028E000F00120201CB50A0017D000230124E407A04200D20400944201D95200FBE7904244
:202900005B41904200D3801A914201D25208F6E719000200080011001CBD01000020FEF7DC
:202920007EFB1CBD08B443001B0E0FD0FF2B11D00721C9015B18C10FC9020B430100480795
:202940004902090B1B05194308BC70470021002008BC704701004002C90DC900C91D09058F
:2029600008BC704710B50E4902788B185B78401CDB06F9D400212D2A04D02B2A02D0401EF5
:20298000134600E00378303B092B04D80A244C431919401CF6E72D2A00D14942084610BD12
:2029A000E032000010B586B001930B4601460198059104A90B8003AB1A8002AA1080059856
:2029C000054C001909881B88194312881143034A00F036F906B010BD0418000080FF000085
:2029E00006B49E22002802D404D106BC7047414204D400E00100013A4900FCD5803101D3FB
:202A0000013200E04900490AD2051143002802D50122D2071143080006BC704770B50A4895
:202A20000A4C84420CD00A4D0A4EB54208D02A686968501C12789200A25890470835F4E74C
:202A400000BF00BF70BDC046C4340000B8340000CC340000DC340000FCB4020C0B0CFF24D9
:202A60002402FF34204021400C00444315005D4306005E430F005743320C3B0CA818C01887
:202A800032043B040025A1186841C9186841FCBC7047000006B54100090E7F390DD41F2254
:202AA000511A0CD9864600020122D2071043C8407246002A00D5404206BD002006BD0200C0
:202AC0000120C007002A00D4401E06BD10B584B0069C039002910192009302980199084389
:202AE00000990843069908430349084303998900024A885004B010BD81000400048042401C
:202B000080B582B008490948019000F0D1F901980749FEF75FFE0198012100F0ADF901983C
:202B200000F00AFB02B080BD74340000004008402C340000F8B51C4615460646571800F00C
:202B40008AFB711E012D0CDB3022012F02DB874200DCCA5D23685E1E26601A707F1E6D1EE2
:202B6000F0E7F8BD80B5FFF78FFBFEF717FCFFF705FEFFF7C7F9FFF7C3FFFFF753FC00F070
:202B800053FB0249B8220020885480BD0C01202081B001466846017000214056002809D4E9
:202BA000FFE7684601781F2001400120884002490860FFE701B0704780E200E081B00146E4
:202BC0006846017000214056002809D4FFE7684601781F2001400120884002490860FFE70B
:202BE00001B0704700E100E004B40422002802D1002104BC704701D50832404212021F3244
:202C00000100521E4900FCD30805090B1205114304BC704780B582B001900091FFE707486A
:202C200000F008FA002801D0FFE7F8E701A80178024800F038FA019802B080BD00801040FE
:202C400084B0039002910192039800680090009801998843009000980299019A11400843FD
:202C60000399086004B0704781B000900549042008600098401E04490860044900200860CA
:202C800001B0704710E000E014E000E018E000E080B584B0019101460198039102A90870BE
:202CA0000398044A801809787022FFF7C9FF04B080BDC0460C11000080B584B0019101466C
:202CC0000198039102A908700398044A801809780722FFF7B5FF04B080BDC0460C110000BB
:202CE000084880F3088800BF00BF00F0F4FA002801D0FFF793FE0020FFF78CFA012000F0F8
:202D0000E1FAC0460040202030B514004C4325001C0044436419050010002900FFF79CFEB7
:202D2000001904000D002100280030BDB0B504460020002B08D0D2B20D782570954204D018
:202D4000641C491C5B1EF7D1B0BD601CB0BD000082B0019000910098034908430199890051
:202D6000024A885002B07047800004000480424080B582B0014601A8018001880F200202A8
:202D80000248FFF75DFF02B080BDC04604010B4080B582B00190009101981121090240189B
:202DA00000990322D203FFF74BFF02B080BD000018B520239B1A04D8010000205B42994019
:202DC00004E004009140DC402143904018BD000082B001900091009B0199034A8858184304
:202DE000885002B07047C0464810000082B001900091009B0199034A88581843885002B099
:202E00007047C0464810000082B001900091009B0199034A88581843885002B07047C04645
:202E20002810000082B00190009100988021084301998900014A885002B0704704804240CD
:202E400080B582B0014601A80170017802480322FFF7F6FE02B080BD00010B4080B582B036
:202E6000014601A80170017802483022FFF7E8FE02B080BD04010B4082B001900091009BD2
:202E80000199034A88581843885002B07047C0462810000010B592008018044A835807244E
:202EA000A404A34321405918815010BD3018000010B50122120383180C789C604B7883501E
:202EC0008978014A815010BD0C11000082B00190009100980199024A885002B07047C046D2
:202EE000D012000081B0009000990120C2020248885001B07047C0460100002682B0019037
:202F000000910198024940580099084002B070473810000081B0009000988100024A81204B
:202F2000885001B07047C0460480424081B000900099024A0248885001B070470408000009
:202F4000030000B182B00190009100980199024A885002B07047C0469012000082B001903F
:202F60000091009B01999D20420188581843885002B0704782B00190009100980199024A3D
:202F8000885002B07047C046B012000081B001466846017000780249086001B07047C046F8
:202FA00008030B4081B0009000990120C2020248885001B07047C0460100002681B0009004
:202FC0000099024A0248885001B0704704080000030000B110B5029CA400001911431943F2
:202FE000014A815010BDC0465018000081B000900099034A885801231843885001B0704734
:203000000418000081B00090009911200202885801235B041843885001B0704781B0009046
:2030200000990120C2020248885001B07047C0460100002681B000900098034940580121FC
:20304000084001B07047C0460811000081B000900099024A0248885001B070470408000065
:20306000030000B182B00190009101982721C90140580099084002B0704781B00090009961
:2030800011200202885801231843885001B0704781B000900099112002028858042318436B
:2030A000885001B0704782B00190684601700078019989225201885002B0704703228058A0
:2030C000002805D0401E4A1C00230B701146F7E7704782B001900091009801999522520115
:2030E000885002B0704782B0019000910098019995225201885002B0704782B0019000916A
:203100000098019995225201885002B0704700000349086801221202904308607047C04647
:2031200008010B400349086801221203104308607047C04604010B4081B000900099024AD9
:203140000120885001B070470811000082B0019000910098019911221202885002B07047E7
:2031600080B5012041020248FFF7B3FF80BDC04600200A4080B5012041020248FFF7FAFE46
:2031800080BDC04600200A4040B584B002AE0096FEF766FE029A039B04B040BDC9B20278DA
:2031A0008A4204D0002A01D0401CF8E70020704781B000900098812149014058C0B201B062
:2031C000704710B50122120383180C789C604978815010BD10B500239A4203D0CC5CC454EA
:2031E0005B1CF9E710BD80B50B4603214258C11D184600F05BF880BD0249086801229043FA
:203200000860704708010B4002490868052210430860704710E000E092008018014A8150D1
:203220007047C0461018000080B501200006FFF71BFDFFF7E9FF80BD00214258091D002A19
:20324000FBD1081F801070470B4611461A4680B500F008F880BD0021425C491C002AFBD1B0
:20326000481E704700239A4202D0C1545B1CFAE77047811E091F00BFFCD2704702460B4698
:203280002046294600E0000082B00094014C019410BD00BF8D0E00000022304639462B4622
:2032A00070470000004870470001202080B5FFF791FF80BD80B5FFF7ADFC80BD80B5FFF7E3
:2032C0000FFA80BD00F003F8FEE7FFE7FEE700BF704705E57047012070470000000000001E
:2032E0000080808080808080808090909090908080808080808080808080808080808080FE
:203300008018040404040404040404040404040404020202020202020202020404040404B1
:203320000404434343434343414141414141414141414141414141414141414104040404CF
:203340000404232323232323212121212121212121212121212121212121212104040404EF
:203360008000000000000000000000000000000000000000000000000000000000000000CD
:2033800000000000000000000000000000000000000000000000000000000000000000002D
:2033A00000000000000000000000000000000000000000000000000000000000000000000D
:2033C0000000000000000000000000000000000000000000000000000000000000000000ED
:2033E000000800000100000000000000000000004000000000000000000000000200000082
:2034000004000000010000002C00C4414D415F52504D3A252E326C662020094D425F525030
:203420004D3A252E326C660D0A00080002000000D330000001000000000000000000000089
:203440003031323334353637383941424344454600303132333435363738396162636465CE
:20346000660000001800000000300000401F00002000010008001F000000000000000000F7
:20348000005500000F0112014001018F012202C01502030F01240440FF000004BF02017F28
:2034A0007EFE0EF56666A63F6666260D400FF123210033FFF000000025210000E7310000D9
:2034C000BD30000002000000E60000008034000000002020C43400000C01202000000000DE
:00000001FF
